:02000000802E50
:0300230002004296
:10003000758921758DF375985075A890D28E80FEC4
:1000400080EEAF991149C29832BF6103116F22BF90
:10005000620311AB22BF5A00227F05758AA0758CFE
:1000600015D28C308DFDC28CC28DDFEF7F00227FD8
:1000700014D2A011BAC2A011BADFF67F00227F14F9
:10008000D2A011CAC2A011CADFF67F00227F14D20B
:10009000A011DAC2A011DADFF67F00227F14D2A00D
:1000A00011EAC2A011EADFF67F00227F14D2A0116C
:1000B000FAC2A011FADFF67F0022758A3C758CF631
:1000C000D28C308DFDC28CC28D22758A30758CF831
:1000D000D28C308DFDC28CC28D22758A24758CFA2B
:1000E000D28C308DFDC28CC28D22758A18758CFC25
:1000F000D28C308DFDC28CC28D22758A0C758CFE1F
:0A010000D28C308DFDC28CC28D221E
:00000001FF
