:02000000802E50
:10003000758901113780F9114E113C22C2A0758CCF
:1000400000758AC8D28C308DFDC28CC28D22D2A0A0
:10005000758C00758A18D28C308DFDC28CC28D22B1
:1000600012007912006722C2A0758CB7758A00D27F
:100070008C308DFDC28CC28D22D2A0758CFA758A0F
:1000800000D28C308DFDC28CC28D221200A41200D1
:100090009222C2A0758CB9758A00D28C308DFDC2B7
:1000A0008CC28D22D2A0758CF8758A00D28C308DCE
:1000B000FDC28CC28D2279FF7AFF7B19DBFEDAFA52
:0300C000D9F6224C
:00000001FF
