:02000000802E50
:050023007F0002004215
:10003000758921758DF375985075A890D28E80FEC4
:1000400080EEAF99114BC298311432BF6105313443
:1000500031BB22BF6205313431AC22BF630531347C
:10006000319D22BF64053134318E22BF65053134A4
:10007000317F22BF6605314331BB22BF6705314363
:1000800031AC22BF68053143319D22BF6905314340
:10009000318E22BF6A053143317F22BF6B05315259
:1000A00031BB22BF6C05315231AC22BF6D053152DC
:1000B000319D22BF6E053152318E22BF6F05315204
:1000C000317F22BF7005316131BB22BF71053161C3
:1000D00031AC22BF72053161319D22BF73053161A0
:1000E000318E22BF74053161317F22BF75053170B9
:1000F00031BB22BF7605317031AC22BF770531703C
:10010000319D22BF78053170318E22BF7905317063
:10011000317F2222747AF5993099FDC299227F05A8
:10012000758AA0758C15D28C308DFDC28CC28DDF86
:10013000EF7F00227F14D2A031CAC2A031CADFF6FD
:100140007F00227F14D2A031DAC2A031DADFF67F3D
:0C01500000227F14D2A031EAC2A031EAE4
:10015C00DFF67F00227F14D2A031FAC2A031FADF81
:10016C00F67F00227F14D2A0510AC2A0510ADFF6FA
:10017C007F00227F14D2A131CAC2A131CADFF67F1F
:10018C0000227F14D2A131DAC2A131DADFF67F006E
:10019C00227F14D2A131EAC2A131EADFF67F00221C
:1001AC007F14D2A131FAC2A131FADFF67F00227F8F
:1001BC0014D2A1510AC2A1510ADFF67F0022758A1E
:1001CC003C758CF6D28C308DFDC28CC28D22758A1A
:1001DC0030758CF8D28C308DFDC28CC28D22758A14
:1001EC0024758CFAD28C308DFDC28CC28D22758A0E
:1001FC0018758CFCD28C308DFDC28CC28D22758A08
:0E020C000C758CFED28C308DFDC28CC28D2202
:00000001FF
