:02000000802E50
:10003000758901D2A075A00011F111CC80FA80F071
:100040001157114522C2A0758CB5758A00D28C302B
:100050008DFDC28CC28D22D2A0758CFC758A00D217
:100060008C308DFDC28CC28D221200821200702253
:10007000C2A0758CB7758A00D28C308DFDC28CC23F
:100080008D22D2A0758CFA758A00D28C308DFDC27B
:100090008CC28D221200AD12009B22C2A0758CB9B9
:1000A000758A00D28C308DFDC28CC28D22D2A07593
:1000B0008CF8758A00D28C308DFDC28CC28D22796D
:1000C000FF7AFF7B19DBFEDAFAD9F6227F64758AA4
:1000D000A0758C15D28C308DFDC28CC28DDFEF7F68
:1000E00000227F64D2A0312DC2A0312DDFF67F0027
:1000F000227F64D2A0313DC2A0313DDFF67F0022D5
:100100007F64D2A0314DC2A0314DDFF67F00227F47
:1001100064D2A0315DC2A0315DDFF67F00227F6432
:10012000D2A0316DC2A0316DDFF67F0022758A74D6
:10013000758CF5D28C308DFDC28CC28D22758A30C3
:10014000758CF8D28C308DFDC28CC28D22758A24BC
:10015000758CFAD28C308DFDC28CC28D22758A18B6
:0D016000758CFCD28C308DFDC28CC28D22BE
:10016D00758A0C758CFED28C308DFDC28CC28D22A1
:00000001FF
