:02000000802E50
:050023007F0002004215
:10003000758921758DF375985075A890D28E80FEC4
:1000400080EEAF991149C29832BF6105312831AFB6
:1000500022BF6205312831A022BF630531283191CA
:1000600022BF64053128318222BF650531283173F2
:1000700022BF6605313731AF22BF6705313731A066
:1000800022BF68053137319122BF6905313731828E
:1000900022BF6A053137317322BF6B05314631AF5C
:1000A00022BF6C05314631A022BF6D05314631912A
:1000B00022BF6E053146318222BF6F053146317352
:1000C00022BF7005315531AF22BF7105315531A0C6
:1000D00022BF72053155319122BF730531553182EE
:1000E00022BF74053155317322BF7505316431AFBC
:1000F00022BF7605316431A022BF7705316431918A
:1001000022BF78053164318222BF790531643173B1
:1001100022227F05758AA0758C15D28C308DFDC288
:100120008CC28DDFEF7F00227F14D2A031BEC2A02F
:1001300031BEDFF67F00227F14D2A031CEC2A031C3
:10014000CEDFF67F00227F14D2A031DEC2A031DEE6
:0B015000DFF67F00227F14D2A031EE0A
:10015B00C2A031EEDFF67F00227F14D2A031FEC2A7
:10016B00A031FEDFF67F00227F14D2A131BEC2A1E7
:10017B0031BEDFF67F00227F14D2A131CEC2A13176
:10018B00CEDFF67F00227F14D2A131DEC2A131DE99
:10019B00DFF67F00227F14D2A131EEC2A131EEDF58
:1001AB00F67F00227F14D2A131FEC2A131FEDFF611
:1001BB007F0022758A3C758CF6D28C308DFDC28CFB
:1001CB00C28D22758A30758CF8D28C308DFDC28C25
:1001DB00C28D22758A24758CFAD28C308DFDC28C1F
:1001EB00C28D22758A18758CFCD28C308DFDC28C19
:1001FB00C28D22758A0C758CFED28C308DFDC28C13
:03020B00C28D227F
:00000001FF
